:020000040800F2
:100000007808002091170008B9030008BB03000816
:10001000BF030008C3030008C70300080000000076
:10002000000000000000000000000000CB030008FA
:10003000CD03000800000000CF030008D103000832
:10004000AB170008AB170008AB170008AB17000888
:10005000AB170008AB17000885160008AB1700089F
:10006000BF160008F91600082D170008AB17000886
:10007000AB170008AB170008AB170008AB17000858
:10008000AB170008AB170008AB170008AB17000848
:10009000AB170008AB170008AB170008AB17000838
:1000A000AB170008AB170008AB170008AB17000828
:1000B000AB170008AB170008AB170008AB17000818
:1000C000AB170008AB170008AB170008AB17000808
:1000D000AB17000867120008610B0008AB17000897
:1000E000AB170008AB170008AB170008AB170008E8
:1000F000AB170008AB170008AB170008AB170008D8
:10010000AB170008AB170008AB170008AB170008C7
:10011000AB170008AB170008AB170008AB170008B7
:10012000AB170008AB170008AB170008AB170008A7
:10013000AB170008AB170008AB170008AB17000897
:10014000AB170008AB170008AB170008AB17000887
:10015000AB170008AB170008AB170008B113000875
:10016000AB170008AB170008AB170008AB17000867
:10017000AB170008AB170008AB170008AB17000857
:10018000AB170008AB17000800F002F800F041F8C8
:100190000AA090E8000C82448344AAF10107DA45E2
:1001A00001D100F036F8AFF2090EBAE80F0013F0F3
:1001B000010F18BFFB1A43F001031847F029000094
:1001C000102A0000103A24BF78C878C1FAD8520724
:1001D00024BF30C830C144BF04680C6070470000C1
:1001E0000023002400250026103A28BF78C1FBD840
:1001F000520728BF30C148BF0B607047782902F012
:100200000183002070471FB502F0ADFC1FBD10B583
:1002100010BD02F071FC1146FFF7F5FF00F008F881
:1002200002F08FFC03B4FFF7F2FF03BC00F0BCFF49
:10023000DAB0002400250026002050905190529002
:1002400053904C904D904E904F90489049904A90CA
:100250004B904490459046904790409041904290FA
:100260004390C8210EA802F095FB00200B900C9043
:100270000D9001A800F072FB0646324601A90EA8B7
:1002800000F032FB05464FF4A06001F0A1FAA8206F
:1002900000F008FF4FF4E13000F093FF01F020F888
:1002A00000F03EFC4FF4965000F054FD00F024FEA8
:1002B00001F088F950A800F0FBF94CA800F04DFAC5
:1002C00048A800F07BFA40A800F0DCFA44A800F04F
:1002D000A6FA34A002F062FA62E0082140A800F019
:1002E000A5FD54A955A800F0C6FD642000F03CFF10
:1002F000082150A800F09AFD54A955A800F0BBFDB4
:10030000642000F031FF08214CA800F08FFD54A9B3
:1003100055A800F0B0FD642000F026FF082148A891
:1003200000F084FD54A955A800F0A5FD642000F05C
:100330001BFF082144A800F079FD54A955A800F03E
:100340009AFD642000F010FF01A800F007FB0646AC
:10035000324601A90EA800F0C7FA05464FF47A709C
:1003600000F002FF05210BA800F093FB06210BA86B
:1003700000F08FFB07210BA800F08BFB08210BA8D6
:1003800000F087FB4FF47A7000F0EEFE002405E0E9
:100390000EA8015D074800F0FCFF641CAC42F7DBCF
:1003A0009BE70000B3F5CABCBBAFCDEAB3C90D0AE9
:1003B0000000000000140140704700BFFEE700BFCE
:1003C000FEE700BFFEE700BFFEE7704770477047DB
:1003D000704700000CB5002001900090764800683E
:1003E00040F480307449086000BF7348006800F42E
:1003F000003000900198401C0190009818B90198B5
:10040000B0F5A04FF1D16C48006800F4003010B195
:100410000120009001E0002000900098012846D1C2
:1004200065484030006840F08050634940310860C2
:100430006248006840F44040604908605E48083007
:1004400000685D49083108600846006840F40040D3
:1004500008600846006840F4A05008605848091F2A
:100460000860081F006840F08070091F086000BF26
:100470005148006800F000700028F9D040F2057083
:10048000504908604C480830006820F003004A4991
:10049000083108600846006840F00200086000BFAC
:1004A00045480830006800F00C000828F8D10CBD61
:1004B00010B54548006840F47000434908603E4864
:1004C000006840F001003C49086000203A490831CA
:1004D0000860394800683D490840374908603C4891
:1004E000091D0860081F006820F48020091F0860AB
:1004F000002031490C310860FFF76CFF4FF00060BD
:1005000031498039086010BD70B5002000220223F7
:1005100000240221284D08352D6805F00C0020B17B
:10052000042806D0082834D107E02A4D2A4E356029
:1005300033E02A4D284E35602FE01F4D2D1D2D68CC
:10054000C5F380541C4D2D1D2D6805F03F0154B19D
:10055000224DB5FBF1F5184E361D3668C6F38816E8
:1005600005FB06F209E01B4DB5FBF1F5124E361DF9
:100570003668C6F3881605FB06F20F4D2D1D2D6853
:10058000C5F301456D1C6B00B2FBF3F5124E3560EF
:1005900003E0104D104E356000BF00BF064D08351A
:1005A0002D68C5F303150E4E705D0B4D2D68C540CB
:1005B000094E356070BD00000038024000700040F8
:1005C00008544007003C024088ED00E0FFFFF6FEC3
:1005D000103000240024F4001400002000127A00DF
:1005E0001800002030B50246002300200BE00C78F4
:1005F000012585402C402CB1C0F107050124AC40F9
:100600001C43E3B2401C0828F1DB137030BD30B549
:100610000246002300200BE00C88012585402C4079
:100620002CB1C0F10F050124AC401C43A3B2401C07
:100630001028F1DB138030BDFCB504460D464FF6A3
:10064000FF70019048F205070020009025E014F8A3
:10065000020B009069466846FFF7C4FFBDF804002E
:100660009DF8001080EA01200190002613E0BDF8FB
:10067000040000F4004030B1BDF8040087EA4000F7
:1006800080B2019006E0BDF804004FF6FF7101EA68
:1006900040000190761C082EE9DB2800A5F1010539
:1006A000D5D101A901A8FFF7B2FFBDF80400FCBD38
:1006B00070B5044600250026012228466D1C24F84A
:1006C0001020032228466D1C24F810200022284602
:1006D0006D1C24F8102028466D1C24F81020284694
:1006E0006D1C24F81020032228466D1C24F81020CD
:1006F00029462046FFF7A0FF064600BFF2B2284673
:100700006D1C24F81020320A28466D1C24F8102095
:1007100070BD2DE9F04105460E460024002700BFBC
:1007200004E035F8140000EB0727641CB01EA0425B
:10073000F7DC2046641C35F810802046641C35F830
:10074000100008EB002821462846FFF775FF10B17E
:100750000120BDE8F0810020FBE770B504460025CC
:100760000026052228466D1C24F810200322284666
:100770006D1C24F81020002228466D1C24F810203F
:1007800028466D1C24F8102028466D1C24F81020E3
:10079000072228466D1C24F8102029462046FFF722
:1007A0004BFF064600BFF2B228466D1C24F810200D
:1007B000320A28466D1C24F8102070BD70B504461E
:1007C00000250026022228466D1C24F81020032252
:1007D00028466D1C24F81020002228466D1C24F8A1
:1007E000102028466D1C24F8102028466D1C24F883
:1007F0001020022228466D1C24F81020294620468D
:10080000FFF71AFF064600BFF2B228466D1C24F817
:100810001020320A28466D1C24F8102070BD70B5D7
:10082000044600250026042228466D1C24F81020CA
:10083000032228466D1C24F81020002228466D1C37
:1008400024F810200D2228466D1C24F810200022C8
:1008500028466D1C24F81020012228466D1C24F81F
:10086000102029462046FFF7E7FE064600BFF2B2F9
:1008700028466D1C24F81020320A28466D1C24F8E6
:10088000102070BD70B504460025002606222846BB
:100890006D1C24F81020032228466D1C24F810201B
:1008A000002228466D1C24F8102028466D1C24F8D0
:1008B000102028466D1C24F81020032228466D1CA9
:1008C00024F8102029462046FFF7B6FE064600BF52
:1008D000F2B228466D1C24F81020320A28466D1CFE
:1008E00024F8102070BD0000F0B503460D461446F4
:1008F0000021201D86B24FF0FE0C0846491C03F86B
:1009000000C00846491C1E544FF0910C0846491C73
:1009100003F800C04FF0900C0846491C03F800C0D3
:100920004FF0010C0846491C03F800C04FF0000CC2
:100930000846491C03F800C0002203E0A85C8F1899
:10094000D855521CA242F9DB301F01444FF0FF0C76
:100950000846491C03F800C088B2F0BD10B5014636
:10096000002264480088040A1046521C0C54614856
:1009700004781046521C0C5420241046521C0C546F
:100980005D480088040A1046521C0C545A480478EA
:100990001046521C0C5420241046521C0C5457482C
:1009A0000088040A1046521C0C545448047810461F
:1009B000521C0C5420241046521C0C5450480088E1
:1009C000040A1046521C0C544D4804781046521C20
:1009D0000C5420241046521C0C544A480088040A27
:1009E0001046521C0C54474804781046521C0C54B4
:1009F00020241046521C0C5443480088040A104618
:100A0000521C0C54404804781046521C0C542024AC
:100A10001046521C0C543D480088040A1046521CD3
:100A20000C543A4804781046521C0C5420241046AA
:100A3000521C0C5436480088040A1046521C0C54B0
:100A4000334804781046521C0C5420241046521C83
:100A50000C5430480088040A1046521C0C542D488F
:100A600004781046521C0C5420241046521C0C547E
:100A700029480088040A1046521C0C542648047861
:100A80001046521C0C5420241046521C0C5490B298
:100A900010BD30B502460B460021FE250846491C14
:100AA000155406250846491C155492250846491C2C
:100AB000155490250846491C155401250846491C23
:100AC000155400250846491C1554144C04EB8300AA
:100AD000D0F8800208B9012500E000250846491C2D
:100AE00015540846491C1354FF250846491C155443
:100AF00088B230BD0000002010000020020000205D
:100B00000400002006000020080000200C00002047
:100B1000120000200A0000200E0000200080424247
:100B20001CB50121202001F0E7F94FF4C0600090CE
:100B300001208DF8040000208DF8060003208DF8B8
:100B4000050001208DF807006946044800F036FFD3
:100B50004FF4C061014800F0ADFF1CBD001402401D
:100B60002DE9F04F2DED028B83B00020029040F272
:100B70002551D24801F03EFD002878D0CF4801F041
:100B800077FCC0B20090CE480078402809DACD4901
:100B9000CB4A127800988854C9480078401CC8494C
:100BA0000870C8480078012812D0C648007802288A
:100BB0000ED0C448007805280AD0C248007806281C
:100BC00006D0C0480078042802D00020BC49087034
:100BD000BB4800780B281AD1BA480078012816D1F2
:100BE000B848007AB749C97900EB01200190B649AD
:100BF00001980880B3480079B249C97800EB012A0E
:100C0000B249A1F800A00020AD49087044E0AC480A
:100C1000007809282CD1AB480078022828D1A948AF
:100C20000079A849C97800EB0125A9490D80A5489C
:100C30008079A449497900EB0126A6490E8000EE8F
:100C4000105AB8EEC00AF2EE040A80EE201AB0EE96
:100C5000418A00EE106AB8EEC00AF2EE040A80EE95
:100C6000201AB0EE418A00209549087014E06CE02B
:100C70009348007813280FD19248007805280BD1AB
:100C80009048007C8F49C97B00EB012B9249A1F869
:100C900000B000208A490870894800780B283BD1B1
:100CA00088480078062837D186488079854949796F
:100CB00000EB012789490F8000EE107AB8EEC00AD8
:100CC000F2EE040A80EE201AB0EE418A7D480079E7
:100CD0007C49C97800EB01288149A1F8008000EE29
:100CE000108AB8EEC00AF2EE040A80EE201AB0EEC6
:100CF000418A7448007A7349C97900EB012979491E
:100D0000A1F80090484609EBD071C1F34F01764A33
:100D1000118000206A49087069480078072814D1BA
:100D200068480078042810D1664804796F48048028
:100D300000EE104AB8EEC00AF2EE040A80EE201A65
:100D4000B0EE418A00205E49087003B0BDEC028B12
:100D5000BDE8F08F10B588B004460121084601F0C7
:100D6000CBF80121480401F010F907220221604864
:100D700000F0AFFE072203215D4800F0AAFE0C2020
:100D8000069002208DF81C0003208DF81D00002025
:100D90008DF81E0001208DF81F0006A9544800F0B0
:100DA0000DFE4FF48070069001208DF81C0003208A
:100DB0008DF81D0000208DF81E0001208DF81F0009
:100DC00006A94B4800F0FAFD02940020ADF80C0093
:100DD000ADF80E00ADF81000ADF814000C20ADF821
:100DE000120002A9354801F08CFA0121334801F0C4
:100DF00010FB4021314801F0F4FB012240F2255163
:100E00002E4801F0BCFB26208DF8040003208DF84D
:100E100005008DF8060001208DF8070001A800F0FC
:100E2000DCFC00203349086008B010BD70B50546F1
:100E30000E4601202F49086000240DE000BF40212C
:100E40001E4801F0C1FB0028F9D035F814101B48EA
:100E500001F00AFB601CC4B2B442EFDB00BF4021CA
:100E6000164801F0B1FB0028F9D0002014490870A1
:100E70002049086070BD2DE9F04107460D46104835
:100E800006780024002028700A2000F06DF90C4834
:100E9000007886420FD176B100BF04E00948005DBA
:100EA0003855601CC4B2B442F8DB0548007828709D
:100EB000002003490870BDE8F081000000440040B4
:100EC000280000204800002004000020100000201E
:100ED0000600002000000020020000200800002082
:100EE0000A0000200C000020120000200E0000204C
:100EF00000000240A00240421CB50121202000F069
:100F0000FBFF2020009001208DF8040000208DF8C8
:100F1000060002208DF805006946204800F04EFDCD
:100F20004020009069461D4800F048FD8020009058
:100F300069461A4800F042FD4FF4807000906946FF
:100F4000164800F03BFD102000906946134800F061
:100F500035FD082000906946104800F02FFD042060
:100F6000009069460D4800F029FD01200090694677
:100F70000A4800F023FD40F2FD11084800F09AFDF8
:100F80001CBD10B52021054800F094FD10BD10B522
:100F90002021024800F090FD10BD00000014024026
:100FA0001CB50121112000F0A7FF1C20009000209B
:100FB0008DF8040003208DF8050001208DF807004E
:100FC0006946354800F0FAFC0120009002208DF8B7
:100FD00007006946314800F0F1FC1CBD10B504461D
:100FE00014B101202E4908702D480078002837D010
:100FF0001021294800F044FD78B10821264800F06E
:101000003FFD50B10421244800F03AFD28B10121F0
:10101000224800F035FD012822D10A2000F0A4F872
:1010200000201F49087010211B4800F029FD08B955
:10103000012010BD0821184800F022FD08B9022047
:10104000F7E70421144800F01BFD08B90320F0E77E
:101050000121124800F014FD01281BD10420E8E70B
:1010600010210D4800F00CFD012813D108210A4879
:1010700000F006FD01280DD10421074800F000FD15
:10108000012807D10121054800F0FAFC10B9012020
:10109000034908700020CCE7001002400000024025
:1010A0002900002010B504466FF0040000F0E2FBB8
:1010B000E11704EB5171C1F3C701394A11701046B1
:1010C000007800EB4001C1EBC0104FF6FF7101EA60
:1010D000C0003449088010BD0146314A12784A43A5
:1010E0004FF0E0235A6100229A611A46126942F0D9
:1010F00001021A6100BF4FF0E022106900F0010206
:101100001AB100F48032002AF5D04FF0E0221269C3
:1011100022F001024FF0E0231A6100229A61704729
:101120000146204A12884A434FF0E0235A610022C8
:101130009A611A46126942F001021A6100BF4FF02B
:10114000E022106900F001021AB100F48032002A96
:10115000F5D04FF0E022126922F001024FF0E023B7
:101160001A6100229A61704770B504464FF4077007
:1011700094FBF0F0C6B24FF4077094FBF0F100FB63
:10118000114085B205E04FF40770FFF7C9FF701EEC
:10119000C6B2002EF7D115B12846FFF7C1FF70BDCA
:1011A0002A0000202C00002000BF704700BFF24A38
:1011B000128802F04002002AF9D0C2B2EE4B9A80A7
:1011C000704710B588B004460121084600F094FE2F
:1011D0000121102000F0EAFE07220921E74800F073
:1011E00078FC07220A21E54800F073FC4FF4C06048
:1011F000069002208DF81C008DF81D0000208DF84F
:101200001E0001208DF81F0006A9DC4800F0D6FB67
:1012100002940020ADF80C00ADF80E00ADF81000FF
:10122000ADF814000C20ADF8120002A9D24801F06C
:1012300068F80121D04801F0ECF8012240F2255174
:10124000CD4801F09CF925208DF8040003208DF88D
:1012500005008DF8060001208DF8070001A800F0B8
:10126000BCFA08B010BD10B540F22551C24801F0DB
:10127000C1F910B3C04801F0FBF8C4B2C0480088FF
:1012800000F40040C8B9BE48008800F4804060B156
:101290000A2C03D00020BA49088020E0B848008812
:1012A00040F40040B649088019E00D2C06D1B4483E
:1012B000008840F48040B249088010E0B0480088BF
:1012C000C0F30D00AF490C54AD480088401CAC4938
:1012D000088008460088C72801DD0020088010BD6E
:1012E00000B587B00121402000F006FE012120203A
:1012F00000F05CFE08220E21A34800F0EAFB082261
:101300000921A14800F0E5FB02208DF808008DF8C6
:10131000090000208DF80A0001208DF80B00400222
:10132000019001A9984800F049FB4FF480400190DA
:1013300001A9954800F042FB4FF41650039000209D
:10134000ADF81000ADF81200ADF81400ADF81800BB
:101350000C20ADF8160003A98C4800F0D2FF012143
:101360008A4801F056F8012240F22551874801F0E1
:1013700006F947208DF8000003208DF801008DF854
:10138000020001208DF80300684600F026FA07B03D
:1013900000BD70B504460D462946204601F064F8AC
:1013A00000BF8021204601F00FF90028F9D070BD60
:1013B000FEB50024002000900190029040F22551DB
:1013C000724801F017F9002874D0704801F050F805
:1013D000C6B26F480088142808DA6E486C4909883C
:1013E00046546B480088401C694908806948007869
:1013F000FE2802D0002066490880FF2E5AD1654899
:101400000078FE28FAD164A001F0C8F9002405E0B4
:101410006048015D66A001F0C1F9641C092CF7DB8E
:1014200065A001F0BBF95B48C5798079002842D1FD
:101430005848C07909282DD2DFE800F0052C090EA4
:1014400013181D22270001205C49086022E00120BA
:101450005A49083108601DE0012058490C310860E4
:1014600018E0012055491031086013E0012053496C
:10147000143108600EE0012050491831086009E07D
:1014800001204E491C31086004E001204B49203105
:10149000086000BF00BF29466846FFF7FAFA00243B
:1014A00005E01DF804103948FFF773FF641C092C90
:1014B000F7DB5DE05FE037488079012846D140499D
:1014C00001EB8500D0F880023248C07909282DD27E
:1014D000DFE800F0052C090E13181D22270000205C
:1014E0003649086022E000203449083108601DE0D8
:1014F000002032490C31086018E000202F491031DB
:10150000086013E000202D49143108600EE000202F
:101510002A491831086009E0002028491C31086078
:1015200004E0002025492031086000BF00BF2946A3
:101530006846FFF7AEFA002405E01DF804101348D2
:10154000FFF727FF641C092CF7DB11E011488079B5
:1015500003280DD129466846FFF79BFA002405E0D1
:101560001DF804100948FFF714FF641C092CF7DB71
:10157000002007490880FEBD001001400000024025
:1015800034000020880000200018024000140140B0
:1015900036000020500100207A696762656520727C
:1015A00065636569766564206261673A00000000E2
:1015B00025303278200900000D0A00008082424266
:1015C000008042420EB50121880300F0EFFCFFF7D6
:1015D000E7FC0421084600F0F4FD102001900120F2
:1015E0008DF80A0000208DF808000C208DF8090005
:1015F00001A801F057F80221042000F0E2FD0420C8
:10160000019001A801F04EF80321042000F0D9FD5B
:101610000820019001A801F045F80021084600F0DB
:10162000D0FD08208DF809000120019001A801F0EB
:1016300039F80A208DF8000001208DF803008DF89C
:1016400001008DF80200684600F0C7F809208DF807
:10165000000002208DF80200684600F0BEF8082065
:101660008DF8000003208DF80200684600F0B5F800
:1016700006208DF8000004208DF80200684600F076
:10168000ACF80EBD10B50A20FFF76EFD01213648FB
:1016900000F0F6F901280BD134480068C043344902
:1016A000C1F8A0020846D0F8A402C043C1F8A402C1
:1016B000012001F068F82FA001F070F810BD10B5FE
:1016C0000A20FFF751FD04212C4800F0D9F960B938
:1016D0002648001F0068C0432549C1F89C020846FF
:1016E000D0F8A402C043C1F8A402042001F04BF8D2
:1016F00023A001F053F810BD10B50A20FFF734FD08
:1017000008211E4800F0BCF960B918480838006884
:10171000C0431749C1F898020846D0F8A802C04350
:10172000C1F8A802082001F02EF810BD10B50A205B
:10173000FFF71AFD1021114800F0A2F960B90B481B
:101740000C380068C0430A49C1F894020846D0F832
:10175000A802C043C1F8A802102001F014F80AA0A2
:1017600001F01CF810BD000000000240A0824242BF
:1017700000804242B8C4B1E4504638000010024034
:10178000B8C4B1E450463700B8C4B1E4504635009F
:101790000948804709480047FEE7FEE7FEE7FEE705
:1017A000FEE7FEE7FEE7FEE7FEE7FEE70448054941
:1017B000054A064B70470000B10400088901000883
:1017C00078020020780800207804002078040020A7
:1017D00032490143324A1160704770B5002100233D
:1017E0000F22C4781CB32E4C246804F4E064C4F5C2
:1017F000E064C4F30721C1F10404E3B20A41447870
:101800009C40E1B28478144021430C07210E254C02
:1018100005786155047804F01F050124AC40057873
:101820006D11AD0005F1E025C5F8004109E004782F
:1018300004F01F050124AC401B4D0678761145F8D5
:10184000264070BD194A0A400243154B1B1F1A60FF
:10185000704739B1124A121D12680243104B1B1D0A
:101860001A6006E00E4A121D126882430C4B1B1DC3
:101870001A607047042808D14FF0E021096941F04F
:1018800004014FF0E022116107E04FF0E021096907
:1018900021F004014FF0E022116170470000FA05C9
:1018A0000CED00E000E400E080E100E080FFFF1FBD
:1018B00010B504469848844208D10121084600F03A
:1018C00086FB0021012000F082FB76E093488442F1
:1018D00008D10121022000F07AFB0021022000F053
:1018E00076FB6AE08E48844208D10121042000F092
:1018F0006EFB0021042000F06AFB5EE08948844210
:1019000008D10121082000F062FB0021082000F02E
:101910005EFB52E08448844208D10121102000F08F
:1019200056FB0021102000F052FB46E07F48844225
:1019300008D10121202000F04AFB0021202000F0E6
:1019400046FB3AE07A48844208D10121402000F069
:101950003EFB0021402000F03AFB2EE07548844217
:1019600008D10121802000F032FB0021802000F00E
:101970002EFB22E07048844208D10121801500F03E
:1019800026FB0021A01500F022FB16E06B488442E4
:1019900008D10121401500F01AFB0021601500F06C
:1019A00016FB0AE06648844207D10121001500F0C9
:1019B0000EFB0021201500F00AFB10BDF0B50A4611
:1019C00000210023002400BF3DE0012505FA01F3BA
:1019D000156805EA03049C4234D105684F000326CC
:1019E000BE40B543056015794E00B54006683543E5
:1019F00005601579012D02D01579022D16D1856863
:101A00004F000326BE40B543856055794E00B54072
:101A1000866835438560456801268E40B54345603C
:101A2000456896798E40B6B235434560C5684F002B
:101A30000326BE40B543C560D5794E00B540C668A3
:101A40003543C560491C1029BFD3F0BD4FF6FF7167
:101A500001600021017141718171C171704708B548
:101A60004FF480320092009A0A430092009AC261B9
:101A7000C161009AC261C2690092C269009208BD48
:101A80000246002013690B400BB1012000E000204A
:101A900070470146086980B27047024600205369CA
:101AA0000B400BB1012000E000207047014648695F
:101AB00080B2704701837047418370470AB1018348
:101AC00000E0418370474161704742694A4042618A
:101AD0007047F0B5002300244D07ED0E02FA05F320
:101AE000CE1000F1200555F826504E07F70E0F26B0
:101AF000BE40B543CF1000F1200646F82750CE1067
:101B000000F1200555F8265045EA0304CE1000F1F7
:101B1000200545F82640F0BD0000024000040240C8
:101B200000080240000C0240001002400014024075
:101B300000180240001C0240002002400024024025
:101B400000280240F948006840F00100F7490860A9
:101B50000020F64908310860F4480068F44908405C
:101B6000F2490860F348091D0860F348EF498431E1
:101B70000860F0481038091D0860EC48006820F43F
:101B80008020EA4908600020E8490C310860E749F4
:101B90008C31086070470021E44A921C1170114694
:101BA0000870704710B501460022002300204A113A
:101BB000012A02D1DD4C236808E0022A03D1DB4C64
:101BC0007034236802E0D94C7434236801F01F029A
:101BD000012494401C400CB1012000E0002010BD05
:101BE00038B5002000900024002500BF3120FFF709
:101BF000D9FF05460098401C00900098B0F5A04F12
:101C000001D0002DF2D03120FFF7CCFF08B1012424
:101C100000E00024204638BD01460020C34A106879
:101C200020F0F80040EAC10010607047C349086026
:101C300070470021BD4A703211701170012802D026
:101C400004280AD104E00121B84A7032117005E07D
:101C50000521B64A7032117000E000BF00BF704726
:101C6000B7490860704770B5049C41EA82150126A7
:101C7000C6EB530645EA0645054345EA0465AB4E07
:101C8000361D356070BDAD4908667047820142EA75
:101C90000172A64B84331A607047A8498866704762
:101CA00010B5830143EA016343EA02739F4C883411
:101CB000236010BDA14908677047A049C8647047F8
:101CC00002460020994B0833186820F0EC6042EA85
:101CD00001031843954B08331860704702460020F3
:101CE000924B0833186820F0784042EA0103184309
:101CF0008E4B083318607047014600208B4A08322B
:101D0000106820F0030008431060704787480830CF
:101D1000006800F00C00704701460020834A08323A
:101D2000106820F0F0000843106070470146002062
:101D30007E4A0832106820F4E05008431060704773
:101D400001460020794A0832106820F4604040EAD9
:101D5000C10010607047F0B5002100220024022568
:101D600000260223714F08373F6807F00C0121B1AC
:101D7000042905D0082937D105E0724F076036E005
:101D8000714F076033E0694F3F1D3F68C7F38056CE
:101D9000664F3F1D3F6807F03F036EB16A4FB7FBC8
:101DA000F3F7DFF888C10CF1040CDCF800C0CCF3C9
:101DB000881C07FB0CF40CE0624FB7FBF3F7DFF86D
:101DC0006CC10CF1040CDCF800C0CCF3881C07FBE0
:101DD0000CF4564F3F1D3F68C7F301477F1C7D0041
:101DE000B4FBF5F7076002E0564F076000BF00BF85
:101DF0004E4F08373F6807F0F0010909534F7A5CEE
:101E00000768D7404760494F08373F6807F4E051FB
:101E1000890A4E4F7A5C4768D7408760434F08373E
:101E20003F6807F46041490B484F7A5C4768D740E8
:101E3000C760F0BD002100F44072B2F5407F0AD1C6
:101E40003A4A0832116821F4F811414A024011431C
:101E5000364A08321160354A70321268C0F30B03FB
:101E60001A43324B70331A60704735494439086061
:101E700070473349403908607047364908607047F9
:101E800001460020294A8C32106820F01F004A1EAB
:101E90001043264A8C321060704701460020234AC6
:101EA0008C32106820F4F8504A1E40EA02201F4A83
:101EB0008C3210607047014600201C4A8C3210683A
:101EC00020F4401008431060704701460020174A74
:101ED0008C32106820F440000843106070470146BF
:101EE0000020124A8C32106820F440300843106001
:101EF000704719490860704739B10C4A303212688E
:101F000002430A4B30331A6006E0084A3032126846
:101F10008243064B30331A607047F9B1034A3432BA
:101F200012680243014B34331A601CE0003802404F
:101F3000FFFFF6EA10300024003000200000474286
:101F4000800E47420024F40000127A00380000207E
:101F5000FFFCFF0F5C014742E01147428F4A1268C5
:101F600082438E4B1A60704739B18C4A121D126839
:101F700002438A4B1B1D1A6006E0884A121D126834
:101F80008243864B1B1D1A60704739B1834A0C325D
:101F900012680243814B0C331A6006E07F4A0C3210
:101FA000126882437D4B0C331A60704739B17B4A0B
:101FB000103212680243794B10331A6006E0774AF8
:101FC000103212688243754B10331A60704739B172
:101FD000724A243A12680243704B243B1A6006E0AE
:101FE0006E4A243A126882436C4B243B1A60704755
:101FF00039B16A4A203A12680243684B203B1A60A2
:1020000006E0664A203A12688243644B203B1A601D
:10201000704739B1614A1C3A126802435F4B1C3B5E
:102020001A6006E05D4A1C3A126882435B4B1C3B17
:102030001A60704739B1594A143A12680243574B33
:10204000143B1A6006E0554A143A12688243534B17
:10205000143B1A60704739B1504A103A1268024373
:102060004E4B103B1A6006E04C4A103A126882430D
:102070004A4B103B1A60704739B1484A1C3212680B
:102080000243464B1C331A6006E0444A1C32126875
:102090008243424B1C331A60704739B13F4A2032A9
:1020A000126802433D4B20331A6006E03B4A20325F
:1020B00012688243394B20331A60704739B1374A6E
:1020C000243212680243354B24331A6006E0334A47
:1020D000243212688243314B24331A60704739B17D
:1020E0002E4A2C32126802432C4B2C331A6006E025
:1020F0002A4A2C3212688243284B2C331A607047CC
:1021000039B1264A303212680243244B30331A6008
:1021100006E0224A303212688243204B30331A6084
:102120007047012808D11D493C31096841F0080178
:102130001A4A3C32116007E018493C31096821F025
:102140000801164A3C321160704739B1134A273AE8
:1021500012780243114B273B1A7006E00F4A273AC8
:10216000127882430D4B273B1A7070470B48403062
:10217000006840F0807009494031086070470146AE
:102180000020064A283A12680A400AB1012000E0FD
:1021900000207047014926390870704734380240E2
:1021A00010B501218803FFF756FF00214FF480404E
:1021B000FFF751FF10BD1C49086070471B490862BA
:1021C000704730B500228B071C0F0F2303FA04F26F
:1021D000154B08338C1053F824309343124C0834B9
:1021E0008D1044F8253023468C1053F824308C078A
:1021F000240F00FA04F423430B4C08348D1044F8E8
:10220000253030BD0949DC31086070470849086055
:102210007047002004492031096801F4807109B138
:10222000012000E0002070470038014000002742F4
:102230000004274210B50446FA48844208D101211F
:102240001020FFF708FF00211020FFF704FF57E0E0
:10225000F548844209D101214804FFF7EBFE002133
:102260004FF40030FFF7E6FE4AE0F048844209D11F
:1022700001218804FFF7DEFE00214FF48020FFF7E4
:10228000D9FE3DE0EA48844209D10121C804FFF7A4
:10229000D1FE00214FF40020FFF7CCFE30E0E548EE
:1022A000844209D101210805FFF7C4FE00214FF443
:1022B0008010FFF7BFFE23E0DF48844208D10121F0
:1022C0002020FFF7C8FE00212020FFF7C4FE17E002
:1022D000DA48844209D101218807FFF7ABFE0021CB
:1022E0004FF08040FFF7A6FE0AE0D548844207D1B0
:1022F00001214005FFF79EFE00216005FFF79AFED1
:1023000010BD2DE9FF4705460E460024A14600BF3B
:10231000A046B08900B100BF2C8A24F44054F08854
:1023200004432C82AC8941F20C608443B08831892B
:102330000843718908430443AC81AC8A24F4407497
:10234000B0890443AC826846FFF705FDB548854275
:1023500002D0B948854202D1DDF80C9001E0DDF8E9
:102360000890A88900F4004040B109EBC90000EBD7
:10237000091031684900B0FBF1F707E009EBC9002B
:1023800000EB091031688900B0FBF1F76420B7FB5E
:10239000F0F004012009642101FB1078A88900F401
:1023A000004040B1322000EBC800B0FBF1F000F07B
:1023B0000700044308E0322000EB08106421B0FB62
:1023C000F1F000F00F0004432C81BDE8FF874FF4CB
:1023D0001651016000218180C18001810C21418161
:1023E00000218181704710B502460020108A20F438
:1023F00070600B884C8823438C882343CC8823430C
:102400001843108210BD0021018041808180C1806D
:10241000704721B1828942F40052828104E08289AE
:102420004DF6FF731A4082817047028B02F47F429F
:102430000283028B0A430283704721B1828942F4EE
:102440000042828103E08289C2F30E0282817047DA
:1024500021B1828A42F40062828204E0828A4FF2D1
:10246000FF731A4082827047C1F30802828070476E
:1024700001468888C0F308007047028A4FF6F0735F
:102480001A400282028A0A430282704721B182897D
:1024900042F00202828104E082894FF6FD731A4005
:1024A0008281704782894FF2FF731A40828182894C
:1024B0000A4382817047028A4FF6DF731A40028214
:1024C000028A0A430282704721B1028A42F48042A2
:1024D000028204E0028A4BF6FF731A4002827047C0
:1024E000818941F001018181704721B1828A42F0E6
:1024F0000802828204E0828A4FF6F7731A408282D1
:102500007047028BD2B20283028B42EA012202831D
:10251000704721B1828A42F02002828204E0828ADE
:102520004FF6DF731A408282704721B1828A42F0EF
:102530001002828204E0828A4FF6EF731A40828290
:102540007047828A4FF6FB731A408282828A0A435E
:102550008282704721B1828A42F00202828204E0C4
:10256000828A4FF6FD731A40828270471AB1838ABD
:102570000B43838202E0838A8B4383827047F0B5EA
:102580000346002400260025002040F66A17B942C1
:1025900000D100BF1846C1F3421401F01F06012705
:1025A00007FA06F5012C01D10C3004E0022C01D110
:1025B000103000E014301AB107682F43076002E0C2
:1025C0000768AF430760F0BD02460020B1F5007F09
:1025D00000D100BF13880B400BB1012000E00020A8
:1025E000704701F40072B2F5007F00D100BFCA430A
:1025F0000280704770B502460024002300250020A9
:1026000040F66A16B14200D100BFC1F3421501F095
:102610001F03012606FA03F3012D13D196893340D7
:1026200017E0000000100140004400400048004056
:10263000004C004000500040001401400078004071
:10264000007C0040022D02D1168A334001E0968AB8
:1026500033400C12012606FA04F41688344013B1F4
:102660000CB1012000E0002070BD10B50022002355
:1026700040F66A14A14200D100BF0A12012494401E
:10268000A3B2DC43048010BD002041490860091D4D
:102690000860091D0860091D08603E483C49143166
:1026A0000860704700213A498279002A3AD00A46E8
:1026B000126803689A430B461A600A1D1268036881
:1026C0009A430B1D1A60027911440A6803681A4381
:1026D0000A602F4A0832126803689A432C4B083369
:1026E0001A601A1D126803689A43294B0C331A604A
:1026F0004279102A0ED11A1F126803681A43244B1C
:1027000008331A601A1D126803681A43204B0C33F1
:102710001A600DE01E49427911440A6803681A43A1
:102720000A6005E0027911440A6803689A430A6066
:1027300070470021016001710C21417100218171FC
:1027400070471349103109680143114A1032116072
:102750007047014600200E4A143212680A400AB13E
:10276000012000E0002070470949143108607047DB
:1027700001460020064A143212680A400AB10120BC
:1027800000E00020704702491431086070470000E3
:10279000003C0140FFFF7F00704700000FB4044978
:1027A00010B503AA029800F079F910BC5DF814FB8B
:1027B0003000002070B5044685690068C10601D567
:1027C000302600E02026C00707D070BDD4E90121E3
:1027D00030469047206A401C20626D1EF6D570BDC1
:1027E00070B5044685690078C00707D170BDD4E98B
:1027F000012120209047206A401C20626D1EF6D5E2
:1028000070BD000070B504460D4621461068AFF358
:1028100000802188090502D50F4A7A4402E00E4A59
:102820007A440E32002104F1240305E000F00F0683
:102830000009965D5E54491C0028F7D120780023DA
:10284000000704D5702D02D009B1022311322046B1
:10285000BDE8704000F0C9B8520300002DE9F05FF8
:10286000894604464FF0000ADFF824B1FB44C0F863
:1028700020A02046E168884700287DD0252806D082
:10288000D4E901219047206A401C2062F1E700252D
:102890005F462046E16888472028064607DB312E40
:1028A00005D2B81910F8200C08B10543F1E7A807C4
:1028B00001D525F00405C4F81CA00027C4F818A011
:1028C0002A2E09D0304600F047F938B304EB8708C8
:1028D000303EC8F8186019E059F8041B204604EB94
:1028E00087029161E1688847012F064618D1E069A7
:1028F000002820DA25F020051DE0D8F8180000EBAC
:10290000800006EB40003038C8F818002046E16827
:102910008847064600F020F90028EED1012F0AD0A2
:102920002E2E08D12046E16888477F1C0646022FDC
:1029300045F02005C4DBA069002803DA404245F0D9
:102940000105A061E80701D025F01005A6B1A6F1A8
:102950004100192802D8203645F400654A46314620
:10296000204625604D46FDF749FC60B1012807D09F
:10297000ED1D25F0070000E007E000F1080978E709
:1029800005F1040975E730467AE7206ABDE8F09F53
:10299000280300004FF0000200B513469446964607
:1029A000203922BFA0E80C50A0E80C50B1F1200162
:1029B000BFF4F7AF090728BFA0E80C5048BF0CC010
:1029C0005DF804EB890028BF40F8042B08BF70476E
:1029D00048BF20F8022B11F0804F18BF00F8012BE0
:1029E000704770477047704770472DE9F0470D46B4
:1029F00099469246044600F124080168880604D5E9
:102A0000E06921F01001216000E00120A84201DD11
:102A1000471B00E00027A1697A1902EB0900081A98
:102A2000A0612078C00602D42046FFF7C3FE00262E
:102A300008E0D4E901211AF806009047206A401CFA
:102A4000761C20624E45F4DB2078C0060AD520466D
:102A5000FFF7B0FE06E0D4E9012130209047206A5C
:102A6000401C2062381EA7F10107F4DC07E0D4E91E
:102A7000012118F805009047206A401C2062281E9A
:102A8000A5F10105F3DC2046FFF7AAFE2078000639
:102A900002D50220BDE8F0870120FBE7074B70B5A7
:102AA0000D467B4400F011F80446284600F020F85B
:102AB00010B14FF0FF3070BD204670BD07E7FFFF3B
:102AC00001694A1C02610878704700B58FB0CDE9F2
:102AD00001310021059105497944CDE903101146E2
:102AE0006846FFF7BBFE0FB000BD0000E5FFFFFF2B
:102AF000007B00F080007047754600F029F8AE4674
:102B000005006946534620F00700854618B020B5F9
:102B1000FEF74CFEBDE820404FF000064FF00007E6
:102B20004FF000084FF0000B21F00701AC46ACE875
:102B3000C009ACE8C009ACE8C009ACE8C0098D46E2
:102B400070470446AFF300802046FDF76BFB0000A2
:102B5000004870471802002030380A2801D20120AE
:102B60007047002070474FF04070E1EE100A704748
:102B700030313233343536373839414243444546B3
:102B800040305800303132333435363738396162AD
:102B900063646566403078000400000800000000AF
:102BA000000000020001000010000000CC2B000813
:102BB0000000002048000000C4010008142C000898
:102BC0004800002030080000E0010008000000007C
:102BD00000000000000000000000000000000000F5
:102BE000007A030A00000000000000000102030454
:102BF00006070809000100000000000000000000B6
:102C000000000000000000000102030401020304B0
:042C100006070809A2
:040000050800018965
:00000001FF
