:020000040800F2
:1000000078080020591A0008F1030008F3030008DB
:10001000F7030008FB030008FF03000800000000CE
:1000200000000000000000000000000003040008C1
:100030000504000800000000070400080904000887
:10004000731A0008731A0008731A0008731A00085C
:10005000731A0008731A000841180008731A000880
:10006000B71800082F190008B3190008731A000800
:10007000731A0008731A0008731A0008731A00082C
:10008000731A0008731A0008731A0008731A00081C
:10009000731A0008731A0008731A0008731A00080C
:1000A000731A0008731A0008731A0008731A0008FC
:1000B000731A0008731A0008731A0008731A0008EC
:1000C000731A0008731A0008731A0008731A0008DC
:1000D000731A000827140008510C0008731A00084E
:1000E000731A0008731A0008731A0008731A0008BC
:1000F000731A0008731A0008731A0008731A0008AC
:10010000731A0008731A0008731A0008731A00089B
:10011000731A0008731A0008731A0008731A00088B
:10012000731A0008731A0008731A0008731A00087B
:10013000731A0008731A0008731A0008731A00086B
:10014000731A0008731A0008731A0008731A00085B
:10015000731A0008731A0008731A00087115000852
:10016000731A0008731A0008731A0008731A00083B
:10017000731A0008731A0008731A0008731A00082B
:10018000731A0008731A000800F002F800F04FF824
:100190000AA090E8000C82448344AAF10107DA45E2
:1001A00001D100F044F8AFF2090EBAE80F0013F0E5
:1001B000010F18BFFB1A43F001031847143D00005C
:1001C000343D0000103A24BF78C878C1FAD85207ED
:1001D00024BF30C830C144BF04680C6070470000C1
:1001E0000023002400250026103A28BF78C1FBD840
:1001F000520728BF30C148BF0B607047662903F023
:10020000FD85642902F06284782902F09B84002035
:1002100070471FB503F0EDFD03F000F80400002067
:10022000002103F059FDE0601FBD10B510BD03F0C3
:100230000DF91146FFF7EDFF00F008F803F02BF978
:1002400003B4FFF7F2FF03BC01F08EF8ADF50C7DAF
:1002500000240025002600BFC82154A802F03AFD62
:10026000002050905190529053904C904D904E9051
:100270004F90489049904A904B90449045904690BA
:1002800047904090419042904390C8210EA802F0C0
:1002900021FD00200B900C900D9001A800F080FB38
:1002A0000646324601A90EA800F03AFB05464FF477
:1002B000A06001F0F1FBA82000F0D4FF4FF4E13082
:1002C00001F05FF801F0ECF800F0A2FC4FF496505A
:1002D00000F0E7FD00F0F0FE01F052FA50A800F047
:1002E00003FA4CA800F055FA48A800F083FA40A899
:1002F00000F0E4FA44A800F0AEFA35A002F0B2FB38
:1003000065E0082140A800F038FE86A987A800F023
:1003100059FE642001F008F8082150A800F02DFED5
:1003200086A987A800F04EFE642000F0FDFF08219A
:100330004CA800F022FE86A987A800F043FE6420A6
:1003400000F0F2FF082148A800F017FE86A987A850
:1003500000F038FE642000F0E7FF082144A800F018
:100360000CFE86A987A800F02DFE642000F0DCFFBB
:1003700001A800F015FB0646324601A90EA800F0C0
:10038000CFFA054654A800F0DDFB4FF47A7000F078
:10039000CBFF4FF47A7000F0C7FF002405E00EA8F1
:1003A000015D0F4801F0D5F8641CAC42F7DB002476
:1003B00005E00EA8015D0BA002F054FB641CAC42EA
:1003C000F7DB0AA002F04EFB08A002F04BFB98E717
:1003D000B3F5CABCBBAFCDEAB3C90D0A000000003B
:1003E0000014014025303278090000000D0A000099
:1003F000704700BFFEE700BFFEE700BFFEE700BF9B
:10040000FEE7704770477047704700000CB500204A
:10041000019000907648006840F48030744908608C
:1004200000BF7348006800F4003000900198401C41
:100430000190009818B90198B0F5A04FF1D16C481F
:10044000006800F4003010B10120009001E00020AD
:1004500000900098012846D165484030006840F07F
:1004600080506349403108606248006840F4404071
:10047000604908605E48083000685D4908310860DE
:100480000846006840F4004008600846006840F4F0
:10049000A05008605848091F0860081F006840F015
:1004A0008070091F086000BF5148006800F00070AC
:1004B0000028F9D040F20570504908604C480830D7
:1004C000006820F003004A490831086008460068C7
:1004D00040F00200086000BF45480830006800F0A6
:1004E0000C000828F8D10CBD10B54548006840F450
:1004F0007000434908603E48006840F001003C49F4
:10050000086000203A4908310860394800683D49D0
:100510000840374908603C48091D0860081F00680A
:1005200020F48020091F0860002031490C31086048
:10053000FFF76CFF4FF0006031498039086010BD53
:1005400070B500200022022300240221284D083526
:100550002D6805F00C0020B1042806D0082834D1FD
:1005600007E02A4D2A4E356033E02A4D284E35608B
:100570002FE01F4D2D1D2D68C5F380541C4D2D1DE2
:100580002D6805F03F0154B1224DB5FBF1F5184E31
:10059000361D3668C6F3881605FB06F209E01B4DCA
:1005A000B5FBF1F5124E361D3668C6F3881605FB0D
:1005B00006F20F4D2D1D2D68C5F301456D1C6B0016
:1005C000B2FBF3F5124E356003E0104D104E35606E
:1005D00000BF00BF064D08352D68C5F303150E4E4C
:1005E000705D0B4D2D68C540094E356070BD000033
:1005F000003802400070004008544007003C0240B0
:1006000088ED00E0FFFFF6FE103000240024F40027
:100610001400002000127A001800002030B50246B5
:10062000002300200BE00C78012585402C402CB1E4
:10063000C0F107050124AC401C43E3B2401C08286C
:10064000F1DB137030BD30B50246002300200BE013
:100650000C88012585402C402CB1C0F10F050124E8
:10066000AC401C43A3B2401C1028F1DB138030BD0A
:10067000FCB504460D464FF6FF70019048F20507A1
:100680000020009025E014F8020B009069466846AF
:10069000FFF7C4FFBDF804009DF8001080EA0120B8
:1006A0000190002613E0BDF8040000F4004030B1D2
:1006B000BDF8040087EA400080B2019006E0BDF872
:1006C00004004FF6FF7101EA40000190761C082EED
:1006D000E9DB2800A5F10105D5D101A901A8FFF7A3
:1006E000B2FFBDF80400FCBD70B50446002500262D
:1006F000012228466D1C24F81020032228466D1C78
:1007000024F81020002228466D1C24F810202846CA
:100710006D1C24F8102028466D1C24F8102003229C
:1007200028466D1C24F8102029462046FFF7A0FF1C
:10073000064600BFF2B228466D1C24F81020320A8B
:1007400028466D1C24F8102070BD2DE9F0410546A7
:100750000E460024002700BF04E035F8140000EB2B
:100760000727641CB01EA042F7DC2046641C35F845
:1007700010802046641C35F8100008EB0028214644
:100780002846FFF775FF10B10120BDE8F081002079
:10079000FBE770B5044600250026052228466D1C9F
:1007A00024F81020032228466D1C24F81020002273
:1007B00028466D1C24F8102028466D1C24F81020B3
:1007C00028466D1C24F81020072228466D1C24F8AA
:1007D000102029462046FFF74BFF064600BFF2B225
:1007E00028466D1C24F81020320A28466D1C24F877
:1007F000102070BD70B50446002500260222284650
:100800006D1C24F81020032228466D1C24F81020AB
:10081000002228466D1C24F8102028466D1C24F860
:10082000102028466D1C24F81020022228466D1C3A
:1008300024F8102029462046FFF71AFF064600BF7D
:10084000F2B228466D1C24F81020320A28466D1C8E
:1008500024F8102070BD70B504460025002604223F
:1008600028466D1C24F81020032228466D1C24F80D
:100870001020002228466D1C24F810200D22284646
:100880006D1C24F81020002228466D1C24F810202E
:10089000012228466D1C24F8102029462046FFF727
:1008A000E7FE064600BFF2B228466D1C24F8102071
:1008B000320A28466D1C24F8102070BD70B504461D
:1008C00000250026062228466D1C24F8102003224D
:1008D00028466D1C24F81020002228466D1C24F8A0
:1008E000102028466D1C24F8102028466D1C24F882
:1008F0001020032228466D1C24F81020294620468B
:10090000FFF7B6FE064600BFF2B228466D1C24F87B
:100910001020320A28466D1C24F8102070BD0000FB
:10092000F0B503460D460021D01C86B28C46084621
:10093000491C03F800C08C460846491C03F800C057
:100940000846491C03F800C04FF0FE0C0846491C3D
:1009500003F800C00846491C1E544FF0000C08461E
:10096000491C03F800C04FF0020C0846491C03F86C
:1009700000C04FF0000C0846491C03F800C00024DA
:1009800003E0285D0F19D855641C9442F9DB11442B
:100990004FF0FF0C0846491C03F800C088B2F0BDB8
:1009A00010B5014600228E480088040A1046521CE9
:1009B0000C548B4804781046521C0C5420241046CA
:1009C000521C0C5487480088040A1046521C0C54D0
:1009D000844804781046521C0C5420241046521CA3
:1009E0000C5481480088040A1046521C0C547E485E
:1009F00004781046521C0C5420241046521C0C54EF
:100A00007A480088040A1046521C0C54774804782F
:100A10001046521C0C5420241046521C0C5474488E
:100A20000088040A1046521C0C5471480478104681
:100A3000521C0C5420241046521C0C546D48008843
:100A4000040A1046521C0C546A4804781046521C82
:100A50000C5420241046521C0C5467480088040A89
:100A60001046521C0C54644804781046521C0C5416
:100A700020241046521C0C5460480088040A10467A
:100A8000521C0C545D4804781046521C0C5420240F
:100A90001046521C0C545A480088040A1046521C36
:100AA0000C54574804781046521C0C54202410460D
:100AB000521C0C5453480088040A1046521C0C5413
:100AC000504804781046521C0C5420241046521CE6
:100AD0000C5490B210BD30B502460B4600210025E3
:100AE0000846491C155401250846491C155408465A
:100AF000491C1554FE250846491C15540525084671
:100B0000491C155400250846491C15540225084661
:100B1000491C155401250846491C15543A4C04EB50
:100B20008300D0F8800200B900E000250846491C87
:100B300015540846491C1354FF250846491C1554F2
:100B400088B230BD10B50146002200241046521C68
:100B50000C5401241046521C0C541046521C0C54C8
:100B6000FE241046521C0C5407241046521C0C54F0
:100B700000241046521C0C5402241046521C0C54E3
:100B800001241046521C0C542048006800B900E0B3
:100B900000241046521C0C541C48001D006808B963
:100BA000012400E000241046521C0C541748083061
:100BB000006808B9012400E000241046521C0C54BF
:100BC00012480C30006808B9012400E000241046E7
:100BD000521C0C54FF241046521C0C5490B210BDF1
:100BE000000000201000002002000020040000206F
:100BF00006000020080000200C0000201200002049
:100C00000A0000200E0000200080424294824242EE
:100C10001CB50121202001F0D3FA4FF4C0600090F0
:100C200001208DF8040000208DF8060003208DF8C7
:100C3000050001208DF807006946044801F022F8FC
:100C40004FF4C061014801F099F81CBD0014024046
:100C50002DE9F04F2DED028B85B00020049040F27D
:100C60002551E94801F02AFE00287CD0E64801F031
:100C700063FDC0B20190E5480078402809DAE449F4
:100C8000E24A127801988854E0480078401CDF4915
:100C90000870DF480078012812D0DD48007802286B
:100CA0000ED0DB48007805280AD0D94800780628FD
:100CB00006D0D7480078042802D00020D349087015
:100CC000D24800780B281BD1D1480078012817D1D1
:100CD000CF48007ACE49C97900EB01200290CD4976
:100CE00002980880CA480079C949C97800EB0120F8
:100CF0000390C949039808800020C44908705DE04A
:100D0000C2480078092841D1C148007802283DD165
:100D1000BF480079BE49C97800EB0126BF490E8063
:100D2000BB488079BA49497900EB0127BC490F805B
:100D300000EE106AB8EEC00AF2EE040A80EE201A45
:100D400011EE105A284602F0E3FF41EC180B53EC69
:100D5000182BB4A001F086FE00EE107AB8EEC00A9F
:100D6000F2EE040A00E097E080EE201A11EE105A2D
:100D7000284602F0CDFF41EC180B53EC182BAFA026
:100D800001F070FE0020A149087017E09F4800782C
:100D9000132813D19E48007805280FD19C48007C69
:100DA0009B49C97B00EB012BAA49A1F800B0594629
:100DB000A9A001F057FE00209449087093480078DC
:100DC0000B2850D19248007806284CD19048807961
:100DD0008F49497900EB0128A449A1F8008000EE71
:100DE000108AB8EEC00AF2EE040A80EE201A11EE64
:100DF000105A284602F08CFF41EC180B53EC182BCC
:100E00009BA001F02FFE824800798149C97800EB50
:100E1000012A9D49A1F800A000EE10AAB8EEC00A70
:100E2000F2EE040A80EE201A11EE105A284602F063
:100E30006FFF41EC180B53EC182B94A001F012FE3D
:100E40007348007A7249C97900EB01299549A1F8E4
:100E50000090484609EBD071C1F34F01924A1180CE
:100E600000206A49087069480078072814D168484A
:100E70000078042810D1664804798C48048000EE7C
:100E8000104AB8EEC00AF2EE040A80EE201A11EE03
:100E9000105A00205D49087005B0BDEC028BBDE81A
:100EA000F08F10B588B004460121084601F088F99A
:100EB0000121480401F0CDF9072202217C4800F00D
:100EC0006CFF072203217A4800F067FF0C20069090
:100ED00002208DF81C0003208DF81D0000208DF8E5
:100EE0001E0001208DF81F0006A9714800F0CAFEFF
:100EF0004FF48070069001208DF81C0003208DF8BF
:100F00001D0000208DF81E0001208DF81F0006A98D
:100F1000674800F0B7FE02940020ADF80C00ADF871
:100F20000E00ADF81000ADF814000C20ADF8120062
:100F300002A9354801F049FB0121334801F0CDFBFE
:100F40004021314801F0B1FC012240F225512E48E8
:100F500001F079FC26208DF8040003208DF80500AF
:100F60008DF8060001208DF8070001A800F099FD1A
:100F700000205049086008B010BD70B505460E4607
:100F800001204C49086000240DE000BF40211E48AC
:100F900001F07EFC0028F9D035F814101A4801F051
:100FA000C7FB601CC4B2B442EFDB00BF402116484F
:100FB00001F06EFC0028F9D00020144908703D496A
:100FC000086070BD2DE9F04107460D460F480678D0
:100FD0000024002028700A2000F0A6F90B480078B1
:100FE00086420FD176B100BF04E00948005D385554
:100FF000601CC4B2B442F8DB0448007828700020BA
:1010000002490870BDE8F08100440040280000203B
:1010100048000020040000201000002006000020EE
:1010200000000020B4F3C6F8D1B9C7BFA3BA202589
:101030002E3166204B706120200D0A00BFD5C6F806
:10104000CEC2B6C820A3BA20252E316620430D0A91
:101050000000000002000020B9E2D5D5C7BFB6C825
:10106000A3BA2025644C55580D0A00000800002042
:10107000CDC1C8C0CEC2B6C8697320252E31662046
:1010800020430D0A000000000A000020CDC1C8C0A6
:10109000BAACCBAEC1BF20252E3166202025250D50
:1010A0000A0000000C000020120000200E000020AA
:1010B00000000240A00240421CB50121202001F0A6
:1010C0007FF82020009001208DF8040000208DF88A
:1010D000060002208DF805006946204800F0D2FD88
:1010E0004020009069461D4800F0CCFD8020009013
:1010F00069461A4800F0C6FD4FF4807000906946BA
:10110000164800F0BFFD102000906946134800F01B
:10111000B9FD082000906946104800F0B3FD042096
:10112000009069460D4800F0ADFD01200090694631
:101130000A4800F0A7FD40F2FD11084800F01EFE2D
:101140001CBD10B52021054800F018FE10BD10B5DB
:101150002021024800F014FE10BD000000140240DF
:101160001CB50121112001F02BF81C20009000205B
:101170008DF8040003208DF8050001208DF807008C
:101180006946354800F07EFD0120009002208DF870
:1011900007006946314800F075FD1CBD10B50446D6
:1011A00014B101202E4908702D480078002837D04E
:1011B0001021294800F0C8FD78B10821264800F028
:1011C000C3FD50B10421244800F0BEFD28B1012127
:1011D000224800F0B9FD012822D10A2000F0A4F82D
:1011E00000201F49087010211B4800F0ADFD08B910
:1011F000012010BD0821184800F0A6FD08B9022002
:10120000F7E70421144800F09FFD08B90320F0E738
:101210000121124800F098FD01281BD10420E8E7C5
:1012200010210D4800F090FD012813D108210A4833
:1012300000F08AFD01280DD10421074800F084FD4B
:10124000012807D10121054800F07EFD10B90120D9
:10125000034908700020CCE7001002400000024063
:101260002900002010B504466FF0040000F066FC71
:10127000E11704EB5171C1F3C701394A11701046EF
:10128000007800EB4001C1EBC0104FF6FF7101EA9E
:10129000C0003449088010BD0146314A12784A43E3
:1012A0004FF0E0235A6100229A611A46126942F017
:1012B00001021A6100BF4FF0E022106900F0010244
:1012C0001AB100F48032002AF5D04FF0E022126902
:1012D00022F001024FF0E0231A6100229A61704768
:1012E0000146204A12884A434FF0E0235A61002207
:1012F0009A611A46126942F001021A6100BF4FF06A
:10130000E022106900F001021AB100F48032002AD4
:10131000F5D04FF0E022126922F001024FF0E023F5
:101320001A6100229A61704770B504464FF4077045
:1013300094FBF0F0C6B24FF4077094FBF0F100FBA1
:10134000114085B205E04FF40770FFF7C9FF701E2A
:10135000C6B2002EF7D115B12846FFF7C1FF70BD08
:101360002A0000202C00002000BF704700BFF24A76
:10137000128802F04002002AF9D0C2B2EE4B9A80E5
:10138000704710B588B004460121084600F018FFE8
:101390000121102000F06EFF07220921E74800F02C
:1013A000FCFC07220A21E54800F0F7FC4FF4C0607E
:1013B000069002208DF81C008DF81D0000208DF88D
:1013C0001E0001208DF81F0006A9DC4800F05AFC21
:1013D00002940020ADF80C00ADF80E00ADF810003E
:1013E000ADF814000C20ADF8120002A9D24801F0AB
:1013F000ECF80121D04801F070F9012240F22551AA
:10140000CD4801F020FA25208DF8040003208DF846
:1014100005008DF8060001208DF8070001A800F0F6
:1014200040FB08B010BD10B540F22551C24801F094
:1014300045FA10B3C04801F07FF9C4B2C048008833
:1014400000F40040C8B9BE48008800F4804060B194
:101450000A2C03D00020BA49088020E0B848008850
:1014600040F40040B649088019E00D2C06D1B4487C
:10147000008840F48040B249088010E0B0480088FD
:10148000C0F30D00AF490C54AD480088401CAC4976
:10149000088008460088C72801DD0020088010BDAC
:1014A00000B587B00121402000F08AFE01212020F4
:1014B00000F0E0FE08220E21A34800F06EFC082296
:1014C0000921A14800F069FC02208DF808008DF880
:1014D000090000208DF80A0001208DF80B00400261
:1014E000019001A9984800F0CDFB4FF48040019095
:1014F00001A9954800F0C6FB4FF416500390002058
:10150000ADF81000ADF81200ADF81400ADF81800F9
:101510000C20ADF8160003A98C4801F056F8012103
:101520008A4801F0DAF8012240F22551874801F09B
:101530008AF947208DF8000003208DF801008DF80E
:10154000020001208DF80300684600F0AAFA07B0F7
:1015500000BD70B504460D462946204601F0E8F866
:1015600000BF8021204601F093F90028F9D070BD1A
:10157000FEB500240027002000900190029040F268
:101580002551724801F09AF9002876D06F4801F091
:10159000D3F8C5B229466EA001F064FA6E480088FF
:1015A000142808DA6D486C49098845546A4800884F
:1015B000401C6949088069480078FE2802D0002054
:1015C00065490880FF2D58D164480078FE28FAD17B
:1015D00063A001F047FA002405E06048015D5CA0CB
:1015E00001F040FA641C092CF7DB62A001F03AFA22
:1015F0005A4886794079002849D158488079092885
:1016000033D2DFE800F00532090E131B20282D002D
:1016100001205949086028E0012057490831086035
:1016200023E0012054490C3108601EE0012052499A
:10163000103108605149C1F8980216E001204E4966
:101640001431086011E001204B49103108604B490A
:10165000C1F8980209E0012047491C31086004E004
:10166000012045492031086000BF00BF314668466F
:10167000FFF731FA0746002406E05CE01DF804108D
:101680003248FFF766FF641CBC42F7DB50E033488A
:10169000407901284CD1394901EB8600D0F880020D
:1016A0002E488079092833D2DFE800F00532090E90
:1016B000131B20282D0000202F49086028E000205F
:1016C0002D490831086023E000202B490C310860C7
:1016D0001EE000202849103108602849C1F898020E
:1016E00016E0002024491431086011E0002022494E
:1016F000103108602149C1F8980209E000201E4914
:101700001C31086004E000201B492031086000BF44
:1017100000BF31466846FFF7DEF90746002405E0C2
:101720001DF804100948FFF714FF641CBC42F7DBE6
:10173000002009490880FEBD001001400000024061
:1017400034000020880000200018024000140140EE
:10175000253032782009000036000020500100209A
:101760006C6F726120726563656976656420626181
:10177000673A00000D0A0000808242420080424227
:101780000EB50121880300F075FDFFF7E9FC042187
:10179000084600F07AFE1020019001208DF80A0022
:1017A00000208DF808000C208DF8090001A801F038
:1017B000DDF80221042000F068FE0420019001A859
:1017C00001F0D4F80321042000F05FFE082001900E
:1017D00001A801F0CBF80021084600F056FE0820D1
:1017E0008DF809000120019001A801F0BFF80A203E
:1017F0008DF8000001208DF803008DF801008DF8B0
:101800000200684600F04DF909208DF80000022022
:101810008DF80200684600F044F908208DF80000B9
:1018200003208DF80200684600F03BF906208DF891
:10183000000004208DF80200684600F032F90EBD69
:101840003EB5002500200090019002900A20FFF78D
:101850006BFD0121754800F077FA012827D1744803
:101860000068C0437349C1F8A0020846D0F8A4023A
:10187000C043C1F8A40208216846FFF72CF90546C9
:10188000002405E01DF804106B48FFF762FE641C9D
:10189000AC42F7DB69A001F0E5F8002405E01DF893
:1018A00004106AA001F0DEF8641CAC42F7DB0120F2
:1018B00001F0CDF83EBD3EB500250020009001901E
:1018C00002900A20FFF730FD0421624800F03CFA44
:1018D000002828D15648001F0068C0435549C1F868
:1018E0009C020846D0F8A402C043C1F8A402072114
:1018F0006846FFF7F0F80546002405E01DF80410DF
:101900004D48FFF726FE641CAC42F7DB4BA001F00C
:10191000A9F8002405E01DF804104CA001F0A2F87D
:10192000641CAC42F7DB042001F091F83EBD3EB5EB
:10193000002500200090019002900A20FFF7F4FC9F
:101940000821444800F000FA00282ED13848083811
:101950000068C0433749C1F898020846D0F89002A1
:10196000C043C1F890020846D0F8A802C043C1F8AD
:10197000A80206216846FFF7AEF80546002405E0F8
:101980001DF804102C48FFF7E4FD641CAC42F7DBA3
:101990002AA001F067F8002405E01DF804102BA030
:1019A00001F060F8641CAC42F7DB082001F04FF84E
:1019B0003EBD3EB5002500200090019002900A2017
:1019C000FFF7B2FC1021234800F0BEF9002828D10F
:1019D00017480C380068C0431649C1F894020846FD
:1019E000D0F8A802C043C1F8A80205216846FFF755
:1019F00072F80546002405E01DF804100E48FFF7B4
:101A0000A8FD641CAC42F7DB0CA001F02BF800240D
:101A100005E01DF804100DA001F024F8641CAC4290
:101A2000F7DB102001F013F83EBD0000000002407B
:101A3000A0824242008042420014014072657475E7
:101A4000726E206D6573736167653A002530327878
:101A5000200900000010024009488047094800475B
:101A6000FEE7FEE7FEE7FEE7FEE7FEE7FEE7FEE74E
:101A7000FEE7FEE704480549054A064B70470000AB
:101A8000E904000889010008780200207808002095
:101A9000780400207804002032490143324A116062
:101AA000704770B5002100230F22C4781CB32E4C60
:101AB000246804F4E064C4F5E064C4F30721C1F1D0
:101AC0000404E3B20A4144789C40E1B284781440B3
:101AD00021430C07210E254C05786155047804F04C
:101AE0001F050124AC4005786D11AD0005F1E0251E
:101AF000C5F8004109E0047804F01F050124AC405A
:101B00001B4D0678761145F8264070BD194A0A40EB
:101B10000243154B1B1F1A60704739B1124A121D40
:101B200012680243104B1B1D1A6006E00E4A121D7C
:101B3000126882430C4B1B1D1A607047042808D1A1
:101B40004FF0E021096941F004014FF0E0221161FA
:101B500007E04FF0E021096921F004014FF0E02295
:101B6000116170470000FA050CED00E000E400E0B0
:101B700080E100E080FFFF1F10B5044698488442D2
:101B800008D10121084600F086FB0021012000F069
:101B900082FB76E09348844208D10121022000F0C4
:101BA0007AFB0021022000F076FB6AE08E48844236
:101BB00008D10121042000F06EFB0021042000F078
:101BC0006AFB5EE08948844208D10121082000F0C8
:101BD00062FB0021082000F05EFB52E08448844252
:101BE00008D10121102000F056FB0021102000F048
:101BF00052FB46E07F48844208D10121202000F0BA
:101C00004AFB0021202000F046FB3AE07A4884425B
:101C100008D10121402000F03EFB0021402000F0CF
:101C20003AFB2EE07548844208D10121802000F063
:101C300032FB0021802000F02EFB22E0704884421D
:101C400008D10121801500F026FB0021A01500F02D
:101C500022FB16E06B48844208D10121401500F0B8
:101C60001AFB0021601500F016FB0AE0664884426A
:101C700007D10121001500F00EFB0021201500F016
:101C80000AFB10BDF0B50A4600210023002400BF66
:101C90003DE0012505FA01F3156805EA03049C42BD
:101CA00034D105684F000326BE40B5430560157961
:101CB0004E00B5400668354305601579012D02D008
:101CC0001579022D16D185684F000326BE40B54315
:101CD000856055794E00B540866835438560456816
:101CE00001268E40B5434560456896798E40B6B270
:101CF00035434560C5684F000326BE40B543C56007
:101D0000D5794E00B540C6683543C560491C1029D9
:101D1000BFD3F0BD4FF6FF71016000210171417129
:101D20008171C171704708B54FF480320092009AFA
:101D30000A430092009AC261C161009AC261C269FD
:101D40000092C269009208BD0246002013690B4050
:101D50000BB1012000E0002070470146086980B205
:101D600070470246002053690B400BB1012000E090
:101D7000002070470146486980B270470183704770
:101D8000418370470AB1018300E04183704741619C
:101D9000704742694A4042617047F0B50023002411
:101DA0004D07ED0E02FA05F3CE1000F1200555F8AF
:101DB00026504E07F70E0F26BE40B543CF1000F158
:101DC000200646F82750CE1000F1200555F8265081
:101DD00045EA0304CE1000F1200545F82640F0BD89
:101DE000000002400004024000080240000C0240D3
:101DF000001002400014024000180240001C024083
:101E0000002002400024024000280240F9480068F7
:101E100040F00100F74908600020F64908310860E9
:101E2000F4480068F4490840F2490860F348091D85
:101E30000860F348EF4984310860F0481038091D04
:101E40000860EC48006820F48020EA49086000201F
:101E5000E8490C310860E7498C310860704700217F
:101E6000E44A921C117011460870704710B5014683
:101E70000022002300204A11012A02D1DD4C2368F0
:101E800008E0022A03D1DB4C7034236802E0D94C0D
:101E90007434236801F01F02012494401C400CB1EB
:101EA000012000E0002010BD38B500200090002483
:101EB000002500BF3120FFF7D9FF05460098401CE0
:101EC00000900098B0F5A04F01D0002DF2D0312045
:101ED000FFF7CCFF08B1012400E00024204638BD04
:101EE00001460020C34A106820F0F80040EAC10013
:101EF00010607047C349086070470021BD4A7032C6
:101F000011701170012802D004280AD104E00121C7
:101F1000B84A7032117005E00521B64A703211706E
:101F200000E000BF00BF7047B7490860704770B558
:101F3000049C41EA82150126C6EB530645EA064594
:101F4000054345EA0465AB4E361D356070BDAD49AD
:101F500008667047820142EA0172A64B84331A6018
:101F60007047A8498866704710B5830143EA01634A
:101F700043EA02739F4C8834236010BDA14908676F
:101F80007047A049C864704702460020994B083347
:101F9000186820F0EC6042EA01031843954B0833BF
:101FA0001860704702460020924B0833186820F0F2
:101FB000784042EA010318438E4B0833186070479B
:101FC000014600208B4A0832106820F003000843C5
:101FD0001060704787480830006800F00C007047B8
:101FE00001460020834A0832106820F0F0000843C0
:101FF00010607047014600207E4A0832106820F4C5
:10200000E05008431060704701460020794A0832CA
:10201000106820F4604040EAC10010607047F0B5DD
:10202000002100220024022500260223714F0837D8
:102030003F6807F00C0121B1042905D0082937D1E8
:1020400005E0724F076036E0714F076033E0694F7B
:102050003F1D3F68C7F38056664F3F1D3F6807F03E
:102060003F036EB16A4FB7FBF3F7DFF888C10CF19D
:10207000040CDCF800C0CCF3881C07FB0CF40CE06B
:10208000624FB7FBF3F7DFF86CC10CF1040CDCF81E
:1020900000C0CCF3881C07FB0CF4564F3F1D3F6873
:1020A000C7F301477F1C7D00B4FBF5F7076002E032
:1020B000564F076000BF00BF4E4F08373F6807F01C
:1020C000F0010909534F7A5C0768D7404760494FD0
:1020D00008373F6807F4E051890A4E4F7A5C476839
:1020E000D7408760434F08373F6807F46041490B8A
:1020F000484F7A5C4768D740C760F0BD002100F4C4
:102100004072B2F5407F0AD13A4A0832116821F490
:10211000F811414A02401143364A08321160354AEB
:1021200070321268C0F30B031A43324B70331A60DB
:102130007047354944390860704733494039086071
:10214000704736490860704701460020294A8C32A2
:10215000106820F01F004A1E1043264A8C3210607F
:10216000704701460020234A8C32106820F4F85052
:102170004A1E40EA02201F4A8C3210607047014616
:1021800000201C4A8C32106820F440100843106074
:10219000704701460020174A8C32106820F4400036
:1021A00008431060704701460020124A8C321068C4
:1021B00020F44030084310607047194908607047A8
:1021C00039B10C4A3032126802430A4B30331A607C
:1021D00006E0084A303212688243064B30331A60F8
:1021E0007047F9B1034A343212680243014B343369
:1021F0001A601CE000380240FFFFF6EA10300024AD
:102200000030002000004742800E47420024F400C6
:1022100000127A0038000020FFFCFF0F5C014742EB
:10222000E01147428F4A126882438E4B1A60704712
:1022300039B18C4A121D126802438A4B1B1D1A6069
:1022400006E0884A121D12688243864B1B1D1A60E5
:10225000704739B1834A0C3212680243814B0C3308
:102260001A6006E07F4A0C32126882437D4B0C33C1
:102270001A60704739B17B4A103212680243794BB9
:1022800010331A6006E0774A103212688243754BA9
:1022900010331A60704739B1724A243A1268024307
:1022A000704B243B1A6006E06E4A243A126882435F
:1022B0006C4B243B1A60704739B16A4A203A126865
:1022C0000243684B203B1A6006E0664A203A1268D7
:1022D0008243644B203B1A60704739B1614A1C3A13
:1022E000126802435F4B1C3B1A6006E05D4A1C3AD1
:1022F000126882435B4B1C3B1A60704739B1594AE4
:10230000143A12680243574B143B1A6006E0554AD0
:10231000143A12688243534B143B1A60704739B128
:10232000504A103A126802434E4B103B1A6006E0C6
:102330004C4A103A126882434A4B103B1A6070476D
:1023400039B1484A1C3212680243464B1C331A60AA
:1023500006E0444A1C3212688243424B1C331A6026
:10236000704739B13F4A2032126802433D4B203357
:102370001A6006E03B4A203212688243394B203310
:102380001A60704739B1374A243212680243354B1C
:1023900024331A6006E0334A243212688243314BF8
:1023A00024331A60704739B12E4A2C321268024326
:1023B0002C4B2C331A6006E02A4A2C3212688243D6
:1023C000284B2C331A60704739B1264A30321268D4
:1023D0000243244B30331A6006E0224A303212683E
:1023E0008243204B30331A607047012808D11D49C1
:1023F0003C31096841F008011A4A3C32116007E09B
:1024000018493C31096821F00801164A3C32116034
:10241000704739B1134A273A12780243114B273BD0
:102420001A7006E00F4A273A127882430D4B273B79
:102430001A7070470B484030006840F080700949BE
:1024400040310860704701460020064A283A126869
:102450000A400AB1012000E00020704701492639F6
:10246000087070473438024010B501218803FFF727
:1024700056FF00214FF48040FFF751FF10BD1C496B
:10248000086070471B490862704730B500228B070F
:102490001C0F0F2303FA04F2154B08338C1053F86A
:1024A00024309343124C08348D1044F825302346D1
:1024B0008C1053F824308C07240F00FA04F42343C3
:1024C0000B4C08348D1044F8253030BD0949DC31FF
:1024D00008607047084908607047002004492031AF
:1024E000096801F4807109B1012000E00020704703
:1024F00000380140000027420004274210B504467E
:10250000FA48844208D101211020FFF708FF00217A
:102510001020FFF704FF57E0F548844209D101215C
:102520004804FFF7EBFE00214FF40030FFF7E6FE12
:102530004AE0F048844209D101218804FFF7DEFE19
:1025400000214FF48020FFF7D9FE3DE0EA488442A5
:1025500009D10121C804FFF7D1FE00214FF400206A
:10256000FFF7CCFE30E0E548844209D1012108059F
:10257000FFF7C4FE00214FF48010FFF7BFFE23E0F9
:10258000DF48844208D101212020FFF7C8FE002146
:102590002020FFF7C4FE17E0DA48844209D1012168
:1025A0008807FFF7ABFE00214FF08040FFF7A6FE43
:1025B0000AE0D548844207D101214005FFF79EFE7D
:1025C00000216005FFF79AFE10BD2DE9FF47054683
:1025D0000E460024A14600BFA046B08900B100BF4E
:1025E0002C8A24F44054F08804432C82AC8941F2B4
:1025F0000C608443B08831890843718908430443DF
:10260000AC81AC8A24F44074B0890443AC8268463F
:10261000FFF705FDB548854202D0B948854202D191
:10262000DDF80C9001E0DDF80890A88900F4004086
:1026300040B109EBC90000EB091031684900B0FB5B
:10264000F1F707E009EBC90000EB091031688900D8
:10265000B0FBF1F76420B7FBF0F00401200964211E
:1026600001FB1078A88900F4004040B1322000EB53
:10267000C800B0FBF1F000F00700044308E032208E
:1026800000EB08106421B0FBF1F000F00F000443F0
:102690002C81BDE8FF874FF4165101600021818035
:1026A000C18001810C21418100218181704710B5D9
:1026B00002460020108A20F470600B884C88234367
:1026C0008C882343CC8823431843108210BD0021FB
:1026D000018041808180C180704721B1828942F4AC
:1026E0000052828104E082894DF6FF731A40828194
:1026F0007047028B02F47F420283028B0A430283FB
:10270000704721B1828942F40042828103E08289CC
:10271000C2F30E028281704721B1828A42F40062C4
:10272000828204E0828A4FF2FF731A4082827047ED
:10273000C1F308028280704701468888C0F3080010
:102740007047028A4FF6F0731A400282028A0A43E7
:102750000282704721B1828942F00202828104E044
:1027600082894FF6FD731A408281704782894FF249
:10277000FF731A40828182890A4382817047028AEC
:102780004FF6DF731A400282028A0A4302827047C0
:1027900021B1028A42F48042028204E0028A4BF6AE
:1027A000FF731A4002827047818941F001018181E3
:1027B000704721B1828A42F00802828204E0828A54
:1027C0004FF6F7731A4082827047028BD2B20283AF
:1027D000028B42EA01220283704721B1828A42F0D1
:1027E0002002828204E0828A4FF6DF731A408282DE
:1027F000704721B1828A42F01002828204E0828A0C
:102800004FF6EF731A4082827047828A4FF6FB734D
:102810001A408282828A0A438282704721B1828A68
:1028200042F00202828204E0828A4FF6FD731A406F
:10283000828270471AB1838A0B43838202E0838AC3
:102840008B4383827047F0B50346002400260025A1
:10285000002040F66A17B94200D100BF1846C1F304
:10286000421401F01F06012707FA06F5012C01D1D9
:102870000C3004E0022C01D1103000E014301AB109
:1028800007682F43076002E00768AF430760F0BDA9
:1028900002460020B1F5007F00D100BF13880B4035
:1028A0000BB1012000E00020704701F40072B2F586
:1028B000007F00D100BFCA430280704770B5024656
:1028C000002400230025002040F66A16B14200D102
:1028D00000BFC1F3421501F01F03012606FA03F3FE
:1028E000012D13D19689334017E0000000100140FC
:1028F0000044004000480040004C004000500040B0
:102900000014014000780040007C0040022D02D1FC
:10291000168A334001E0968A33400C12012606FAEB
:1029200004F41688344013B10CB1012000E00020FB
:1029300070BD10B50022002340F66A14A14200D1F8
:1029400000BF0A1201249440A3B2DC43048010BDEE
:10295000002041490860091D0860091D0860091D23
:1029600008603E483C4914310860704700213A49EC
:102970008279002A3AD00A46126803689A430B46C5
:102980001A600A1D126803689A430B1D1A600279C7
:1029900011440A6803681A430A602F4A0832126811
:1029A00003689A432C4B08331A601A1D1268036897
:1029B0009A43294B0C331A604279102A0ED11A1F00
:1029C000126803681A43244B08331A601A1D1268F0
:1029D00003681A43204B0C331A600DE01E494279FC
:1029E00011440A6803681A430A6005E00279114439
:1029F0000A6803689A430A60704700210160017108
:102A00000C2141710021817170471349103109680F
:102A10000143114A103211607047014600200E4AEE
:102A2000143212680A400AB1012000E00020704709
:102A3000094914310860704701460020064A1432E3
:102A400012680A400AB1012000E0002070470249E4
:102A50001431086070470000003C0140FFFF7F0018
:102A6000704700000FB4044910B503AA029800F0A3
:102A7000C3FB10BC5DF814FB3000002070B50446A9
:102A800085690068C10601D5302600E02026C00710
:102A900007D070BDD4E9012130469047206A401C20
:102AA00020626D1EF6D570BD70B50446856900784C
:102AB000C00707D170BDD4E9012120209047206ACA
:102AC000401C20626D1EF6D570BD00002DE9F0415E
:102AD0000646002410687529314616A510D0AFF3BC
:102AE0000080002802DA404213A507E031688A0717
:102AF00001D512A502E0490704D511A5012401E082
:102B0000AFF3008000210A2206F1240709E0B0FBA0
:102B1000F2FCB0FBF2F302FB1C0030307854184694
:102B2000491C0028F3D123462A463046BDE8F0412F
:102B300000F0FBB8000000002D0000002B0000009A
:102B40002000000070B504460D4621461068AFF322
:102B500000802188090502D50F4A7A4402E00E4A16
:102B60007A440E32002104F1240305E000F00F0640
:102B70000009965D5E54491C0028F7D12078002397
:102B8000000704D5702D02D009B10223113220466E
:102B9000BDE8704000F0C9B8A21200002DE9F05F56
:102BA000894604464FF0000ADFF824B1FB44C0F820
:102BB00020A02046E168884700287DD0252806D03F
:102BC000D4E901219047206A401C2062F1E70025EA
:102BD0005F462046E16888472028064607DB312EFD
:102BE00005D2B81910F8200C08B10543F1E7A80781
:102BF00001D525F00405C4F81CA00027C4F818A0CE
:102C00002A2E09D0304601F060F838B304EB87086B
:102C1000303EC8F8186019E059F8041B204604EB50
:102C200087029161E1688847012F064618D1E06963
:102C3000002820DA25F020051DE0D8F8180000EB68
:102C4000800006EB40003038C8F818002046E168E4
:102C50008847064601F039F80028EED1012F0AD046
:102C60002E2E08D12046E16888477F1C0646022F99
:102C700045F02005C4DBA069002803DA404245F096
:102C80000105A061E80701D025F01005A6B1A6F165
:102C90004100192802D8203645F400654A463146DD
:102CA000204625604D46FDF7A9FA60B1012807D0FE
:102CB000ED1D25F0070000E007E000F1080978E7C6
:102CC00005F1040975E730467AE7206ABDE8F09F10
:102CD000781200004FF0000200B513469446964665
:102CE000203922BFA0E80C50A0E80C50B1F120011F
:102CF000BFF4F7AF090728BFA0E80C5048BF0CC0CD
:102D00005DF804EB890028BF40F8042B08BF70472A
:102D100048BF20F8022B11F0804F18BF00F8012B9C
:102D2000704770477047704770472DE9F0470D4670
:102D300099469246044600F124080168880604D5A5
:102D4000E06921F01001216000E00120A84201DDCE
:102D5000471B00E00027A1697A1902EB0900081A55
:102D6000A0612078C00602D42046FFF787FE002627
:102D700008E0D4E901211AF806009047206A401CB7
:102D8000761C20624E45F4DB2078C0060AD520462A
:102D9000FFF774FE06E0D4E9012130209047206A55
:102DA000401C2062381EA7F10107F4DC07E0D4E9DB
:102DB000012118F805009047206A401C2062281E57
:102DC000A5F10105F3DC2046FFF76EFE2078000632
:102DD00002D50220BDE8F0870120FBE770472DE90E
:102DE000FF4F0C461E464FF0FF378BB0D2E9000173
:102DF000DDF860800A908A46C1F30A5505B93D4660
:102E0000002108464FF00000BAF1000F00F4400026
:102E100005DA00EB80004FF4400101EA50004FEA70
:102E20009059B9F1010F00DDB9460A9850EA4A00FD
:102E30000ED044F61050A5F2FF3545432F14B8F1DB
:102E4000000F1ED07542291E1EDDC9F100021CE0D4
:102E5000B8F1010F4FF0000001D0302103E0F24340
:102E600005E02154401CB042FBDB3046002200212B
:102E700021540B99C1F80880C1E900200FB0BDE8CA
:102E8000F08FBD1B6D1CDEE74A4600DA694206A8DA
:102E900000F066FA06AB93E8070003AB83E807008F
:102EA00050460A9900F03EFB8DE80700A0F500505F
:102EB0001F3800900398002D09DD42F21F014A4699
:102EC000084403A90390684600F09DFD08E0A0F5C2
:102ED00000504A461F3803A90390684600F0A7FD3A
:102EE0008DE807000004000C03D04FF0FF304108CC
:102EF00000E01046B8F1000F03D000220092154602
:102F00001EE0751E05D400F08DF9303262556D1E3D
:102F1000F9D5B3460122084302D000227F1C04E009
:102F20002078302801D100227F1E002A099786D000
:102F30001DE0112D07DA00F075F9303262556D1C75
:102F400050EA0102F5D1084302D00098C8B10EE062
:102F50000021681E05E0235C625C63542254401E1D
:102F6000491C8142F7DBAB46A81B401E099000209C
:102F700004F80B000B98099AC0F80880C0E9002BF0
:102F80007CE711264FF0000859E72DE9F04F8846FD
:102F90000446D21D22F0070191B0D1E90001CDE92C
:102FA0000A0100F07AFE02460B98C00F01D02D20D6
:102FB00007E02068810701D52B2002E0202101EAEB
:102FC000C000032A099001D0072A05DB03464146C9
:102FD000204600F085F90BE12078800601D5E069F4
:102FE00000E00620B8F1650F814606D0B8F1660F03
:102FF00018D0B8F1670F70D131E00020B9F1110F8E
:10300000009001DB112301E009F101030AAA01A9E3
:103010000CA8FFF7E4FEDDE90C70002609F10105BC
:10302000834647E001204B4600904FF000470AAA34
:1030300001A90CA8FFF7D3FEDDE90DB00C995D46A0
:10304000002610B909F101000D18B9EB050003D4F1
:10305000C0F1FF3609F10105A5EB09002BE0B9F13C
:10306000010F01DA4FF001090020B9F1110F0090B2
:10307000484601DD112300E003460AAA01A90CA875
:10308000FFF7ADFEDDE90C704D4600268346207843
:1030900000070AD4AB4500DA5D4601A8012D04DD26
:1030A000411911F8011C302907D04F4502DA17F1F8
:1030B000040F04DA012082460FE06D1EEEE7002FB8
:1030C00002DCED1B3E4403E0781CA84200DD7D1CC1
:1030D000B81B00F1010A4FF000472078000703D425
:1030E000AA4501DB4FF0FF3A0021B7F1004F0DF187
:1030F00043088DF8431024D002202B23002F01DA3F
:103100007F422D230A21021EA0F1010000DC5FB1E5
:1031100097FBF1FC97FBF1F201FB1C7C17460CF1CD
:10312000300C08F801CDEEE7A8F10100037021880A
:10313000090501D5452100E06521A0F1010800F84D
:10314000011C09980FA9A1EB0807FF1D00B1012080
:10315000411901EBEA70A1693844081A401EA061C8
:103160002078C00602D42046FFF788FC099828B1D1
:10317000D4E901219047206A401C20622078C006D3
:1031800022D52046FFF77AFC1EE0002E04DBB34573
:1031900002DD01A8805D00E03020D4E901219047E4
:1031A000206A401C2062761CAAF101005FEA000A36
:1031B0000AD100F033F8C0680168405CD4E901210D
:1031C0009047206A401C2062281EA5F10105DCDC26
:1031D00007E0D4E9012118F8010B9047206A401C50
:1031E0002062381EA7F10107F3DC2046FFF75CFCE4
:1031F000032011B043E60000074B70B50D467B4439
:1032000000F05BF80446284600F018F910B14FF0C2
:10321000FF3070BD204670BD6BE1FFFF0048704776
:103220003802002030B5B0F10A024FEA900E71F179
:1032300000034EEA817EB0EB0E0061EB91014FEA94
:10324000101E4EEA017E10EB0E0041EB11114FEA09
:10325000102E4EEA016E10EB0E0041EB11214FEAE9
:10326000104E4EEA014E10EB0E0041EB114140189A
:1032700041F100014FEAD00040EA41704FEAD1012C
:1032800010EB80054FEA810444EA907444EB01049A
:103290006D1944EB0404521BA3414FF0000348BFD7
:1032A0000A3200D530BD401C41F1000130BD0000A4
:1032B00001694A1C02610878704700B58FB0CDE9FA
:1032C00001310021059105497944CDE903101146EA
:1032D0006846FFF763FC0FB000BD0000E5FFFFFF8D
:1032E0002DE9F0411F46044603260168072A01F430
:1032F000006004DB08B116A505E016A503E008B1DF
:1033000015A500E015A521F010002060A069C01EE1
:10331000A0610FB1401EA0612046FFF7AFFB4FB187
:10332000D4E9012138469047206A401C2062C01C25
:10333000206206E0206AFAE7D4E9012115F8010BC2
:103340009047761EF8D22046FFF7AEFBBDE8F0812D
:103350004E414E006E616E00494E4600696E660039
:103360002DE9F047814616468AB0334878440DC8A7
:103370008DE80D0030487844801C03AC0DC884E80B
:103380000D0041F69B300844372190FBF1F290FB91
:10339000F1F5A5F1800501FB12041B3C02D5644246
:1033A000012000E00020DFF890A080460027FA44CA
:1033B000AAF1BE0A0DE0E00709D03246684607EBE5
:1033C00047010AEB810100F032FB8DE80700641031
:1033D0007F1C002CEFD1184F7F44AC3F18E0E8076A
:1033E00014D007EB04100DF1180A90E80E008AE8DB
:1033F0000E00C068F04201D198190890324606A923
:1034000003A800F014FB03AB83E807006D10641CF5
:10341000002DE4D132466946B8F1000F03A802D06E
:1034200000F0F1FA01E000F002FBC9E90001C9F87F
:1034300008200AB0BDE8F087480B0000007B00F0D0
:103440008000704700487047180200207546FFF75B
:10345000F9FFAE4605006946534620F00700854651
:1034600018B020B5FEF706FBBDE820404FF000067F
:103470004FF000074FF000084FF0000B21F007015C
:10348000AC46ACE8C009ACE8C009ACE8C009ACE89F
:10349000C0098D4670470446AFF300802046FCF714
:1034A000CFFE00004FF0013C50F8042B51F8043BD4
:1034B0009A4221D1A2EB0C03934313EACC1317D108
:1034C00050F8042B51F8043B9A4215D1A2EB0C039F
:1034D000934313EACC130BD150F8042B51F8043B5F
:1034E0009A4209D1A2EB0C03934313EACC13DBD02D
:1034F0004FF00000704700BFD01A01BAB1FA81F155
:1035000001F0180122FA01F0CB40C1F12001DBB239
:10351000C0B2C01A2CFA01F3D11A914311EAC311B7
:10352000E6D170475FEA400C08BF91F0000F4FEA08
:103530008C234FEAC12243EA51514FEA1C5018BF75
:1035400000F5F0404FEA300018BF41F000415FEA5B
:103550006C5C00F02980BCF1FF3F08BF40F0804068
:103560007047130C06BF12044FF0100C4FF0000C04
:10357000130E04BF12020CF1080C130F04BF12014A
:103580000CF1040C930F04BF92000CF1020CD30F4A
:1035900004BF52000CF1010C11464FF00002A0F1E3
:1035A0001F00A0EB0C00704711F0004F08BF7047E0
:1035B00031F000413FF4D5AF0B0C06BF09044FF0CA
:1035C000100C4FF0000C0B0E04BF09020CF1080C9C
:1035D0000B0F04BF09010CF1040C8B0F04BF890011
:1035E0000CF1020CCB0F04BF49000CF1010CCCF123
:1035F0002003A0EB0C0022FA03F302FA0CF241EADA
:10360000030100F10100704720F07F4C80EA0300C5
:1036100023F07F47ACEB070303F57C5300F0004039
:1036200003F1FF032DE980494FEA154B09B44FEA36
:10363000144325EA0B4E24EA03480FF2042606EB56
:10364000132749083E785FEA320203FB0667C7F595
:10365000000707FB06F64FEA54374FEAD64606F155
:10366000020607FB066CCCF1005C4FEA1C472CEA13
:10367000074C07FB06F40CFB06F504EB15464FEA76
:10368000961634BF00204FF000404FEAD13706FBBA
:1036900007FC4FEA1C4C0CFB0BF7D21B03FB0CF78F
:1036A00061EB07010CFB0EF7B0EB074072EB174222
:1036B0000CFB08F734BFA2EB0742B2EB074261EB09
:1036C00017414FEA0C444FEA910706FB07FC4FEA0B
:1036D0001C4C0CFB0BF7B0EBC74072EB573203FBF3
:1036E0000CF734BFA2EBC742B2EBC74261EB5731D4
:1036F0000CFB0EF7B0EBC70072EB57720CFB08F730
:1037000034BFA2EBC702B2EBC70261EB5771039F54
:103710004FEA816141EA921104EBCC044FEAD137C0
:103720004FEA826206FB07FC42EA90124FEA806091
:103730004FEA1C4C0CFB0BF7D21B03FB0CF761EBA5
:1037400007010CFB0EF7B0EB074072EB17420CFBC6
:1037500008F734BFA2EB0742B2EB074261EB174117
:103760004FEA8C554FEA910704EB9C2406FB07FCBB
:103770004FEA1C4C0CFB0BF7B0EBC74072EB573217
:1037800003FB0CF734BFA2EBC742B2EBC74261EBBD
:1037900057310CFB0EF7B0EBC70072EB57720CFB06
:1037A00008F734BFA2EBC702B2EBC70261EB577157
:1037B00015EB4C254FEA816141EA92114FEA826292
:1037C0004FEAD13742EA901206FB07FC44F10004AD
:1037D0004FEA80604FEA1C4C0CFB0BF7D21B03FB3B
:1037E0000CF761EB07010CFB0EF7B0EB074072EB37
:1037F00017420CFB08F734BFA2EB0742B2EB0742BB
:1038000061EB174115EB1C154FEA813141EA9241FA
:103810004FEA823242EA90424FEA80304FEA0C7619
:1038200044F1000448EA03434EEA0B484FF0000E0F
:10383000B2EB080C71EB030724BF624639464EEB2E
:103840000E0E4FF0000B0018524149414BEB0B0B91
:10385000B2EB080C71EB03077BF1000B24BF62464F
:1038600039464EEB0E0E4FF0000B00185241494105
:103870004BEB0B0BB2EB080C71EB03077BF1000B6E
:1038800024BF624639464EEB0E0E51EA020718BFBE
:1038900046F0010616EB0E7655F1000254F10001D8
:1038A00003D5BDE88901BDE80088BDE88901BDE810
:1038B0000048B619524141EB0101A3F101037047E1
:1038C00080807F7E7D7C7B7A79787776767574735D
:1038D000727171706F6E6E6D6C6C6B6A6A6968681C
:1038E000676666656464636362616160605F5F5EB2
:1038F0005E5D5D5C5C5B5B5A5A5959585857575628
:10390000565555555454535352525251515050508C
:103910004F4F4F4E4E4D4D4D4C4C4C4B4B4B4A4ADE
:103920004A49494948484847474747464646454522
:10393000454444444443434343424242424141415B
:10394000002B26D4770021D01CB54FEA370703B4EB
:103950004FF010004FF010014FF000000FBCBDE819
:1039600010400BF1010BBBF1010F08BF5FEA170715
:1039700022BF12F1010211F101014FF0004143F1A8
:10398000000300F0004043EA00007047F9D35708F5
:10399000DAE746EA064613F1400F4FEA16461FDD06
:1039A00013F1200FDFBF16430A46002120335B428C
:1039B000C8D0C3F1200746EA064602FA07F74FEAE5
:1039C000164646EA0706C3F1200722FA03F201FA77
:1039D00007F721FA03F14FF0000342EA0702B1E7CB
:1039E00046EA020646EA06464FEA164646EA010657
:1039F000BCBF46EA0646360C4FF000034FF000020B
:103A00004FF000019EE72DE9C048934630B491E89D
:103A1000380007C831EA400C48BF34EA430C03D5EC
:103A2000FFF7F2FDFFF78CFFF0BCBDE800882DE941
:103A3000C048934630B491E8380007C810F0804F72
:103A400008BF13F0804F03D100F005F8FFF778FFAF
:103A5000F0BCBDE8008820F07F4780EA030023F037
:103A60007F4C07EB0C03A3F57C5300F00040A3F15F
:103A7000FE0392F0000F00F0B38095F0000F00F00D
:103A800077802DE901494FEA11404FEA144621EAB7
:103A9000004800FB06FC24EA064708FB06F607FB85
:103AA00008F800FB07F718EB06484CEB164C4FEAFA
:103AB000124B18EB07484FEA15464CEB174022EA29
:103AC0000B4E0BFB06FC25EA06470EFB06F607FB32
:103AD0000EFE0BFB07F71EEB064E4CEB164C4FF0A1
:103AE00000061EEB074E4CEB174B18EB0B0840F192
:103AF000000018EB0E0B58EB000840F100008F1A85
:103B00004FF000013CBFC943661B14BFB5EB040C6A
:103B100000213CBFC943F61B4FEA17444EEA8E0E04
:103B200027EA04454FEA1C4704FB07622CEA074CCE
:103B300005FB07F70CFB05F604FB0CFC16EB074630
:103B400042EB174216EB0C4642EB1C421BEB0606FF
:103B500058EB0202414146EA9E0601D5BDE80189C3
:103B6000B619524141EB0101A3F10103BDE80189FE
:103B70004FEA14454FEA114724EA054621EA074C6B
:103B800005FB07F406FB07F70CFB06F105FB0CFC35
:103B900011EB074144EB17444FEA124711EB0C417C
:103BA00044EB1C4422EA074C05FB07F206FB07F72F
:103BB0000CFB06F605FB0CFC16EB074642EB174226
:103BC00016EB0C4642EB1C456A1854F1000148BF45
:103BD0007047B619524141EB0101A3F1010370474F
:103BE00095F0000F37D04FEA11424FEA144721EA0F
:103BF000024624EA074C02FB07F106FB07F70CFB21
:103C000006F402FB0CFC14EB074441EB17414FEAAE
:103C1000154714EB0C4441EB1C4125EA074C02FB11
:103C200007F506FB07F70CFB06F602FB0CFC16EB90
:103C3000074645EB174516EB0C4645EB1C4212199F
:103C400051F1000148BF7047B619524141EB0101E3
:103C5000A3F1010370474FEA14454FEA114724EAE4
:103C6000054621EA074C05FB07F106FB07F70CFBAD
:103C700006F24FF0000605FB0CFC12EB074241EB8D
:103C8000174112EB0C4251EB1C4148BF7047921890
:103C900041EB0101A3F10103704703B40198410016
:103CA000009850EAC12018BF04204A0D18BF40F008
:103CB000010040F2FF72B2EB515F08BF40F002001A
:103CC000012808BF052002B0704730380A2801D209
:103CD000012070470020704710B500290AD00878ED
:103CE000002807D005487844FFF7DCFB002801D006
:103CF000002010BD0248784410BD00000A020000F8
:103D0000020200000808A0F500114FEA31017047D7
:103D100043004FEAD30C4FEA3C0C43401FBF40071F
:103D20000CF1605113F0FE4F70471CF0006F03D18F
:103D300000200CF0004170470CF0004343EA507043
:103D400010B540EACC0000F00EF800BF0000009271
:103D50004FEA0001FFF7D6BF4FF000414FF00000DF
:103D6000A1F5002170470EF1020E2EF0030E5EF851
:103D7000044B244204D44FEA4102B2F17F4F11D8E0
:103D80004FEA4003B3F17F4F0CD80ED14FEAD07CFD
:103D9000B2F17F4F0CEB4C0C0CF1020C08BF4CEB5A
:103DA000D17C04E04FF0080C01E04FEAD17C0CEB31
:103DB0004C0324FA03F404F00704B4F1040C06D213
:103DC0000EEB840CBDE810404CF0010C6047DFE8BE
:103DD0000CF0070802024FF00040A0F5800010BD73
:103DE0000846420018BFD2F1807288BF00F0004040
:103DF00010BD4FF04070E1EE100A7047FFF7C5B8F4
:103E00003031323334353637383941424344454610
:103E1000403058003031323334353637383961620A
:103E2000636465664030780004000008000000000C
:103E3000000000020001000010000000024000002D
:103E4000000000A00000000005400000000000C8C5
:103E5000000000000C4000000000409C000000003A
:103E6000194000000020BCBE0000000034400000EB
:103E7000BFC91B8E00000004B5400000504BCFD0DE
:103E80006607E2CF010000006C4100003E8251AAAB
:103E9000DFEEA73401000000D9420000DCB5A0E24B
:103EA0003A301F97FFFFFFFFB4450000FD25A0C873
:103EB000E9A3C14FFFFFFFFFFF3F000000000080AC
:103EC00000000000FF3F0000000000800000000034
:103ED0000C3F00080000002048000000C40100085A
:103EE000543F00084800002030080000E0010008AE
:103EF0001C00000043000000F8FFFFFF0C00000062
:103F00000E0000000F0000002E0000000000000066
:103F100000000000000000000000000000000000A1
:103F2000007A030A00000000000000000102030400
:103F30000607080900010000000000000000000062
:103F4000000000000000000001020304010203045D
:043F5000060708094F
:040000050800018965
:00000001FF
